:020000040000FA
:0800000000008A110A12122807
:08000800F0000308F1000A08F2
:10001000F20072088A0071088300F00E700E090069
:040020000034003474
:0C002400000083120313A0018A110A12CD
:10003000282164308A110A125221831203130611F7
:100040008A110A123620FF308A110A123B208A11C7
:100050000A12DF208A110A12DF2083120313061509
:10006000FA308A110A1252211D28352864308A116B
:100070000A1252210800A2000130A1000830A3009A
:1000800083160313861483160313061496308A11FD
:100090000A125D2183160313861083120313861040
:1000A00096308A110A125D218316031306108312FB
:1000B0000313061083160313861483120313861882
:1000C0005F2883120313861C632883120313861888
:1000D0006728A20C83120313031C6F2873280610D1
:1000E0000030A106762806140130A10683120313FE
:1000F000861C7828A30B65288312031386187E2894
:10010000A10C83120313031C862888280610892853
:10011000061483120313861C8B28831603130614FC
:100120008312031386189228831203130618962845
:1001300083120313861C9A288312031386189E28A1
:10014000831603138610831203138610080083128C
:1001500003138C1EA728831203131A0808008312A6
:1001600003130C1EAF288312031399000800A40088
:10017000A41DC528083A0319C52800002408093A17
:100180000319C52800000730A4072408303EAF201B
:100190000800A400240E0F39203E8A110A12B7204D
:1001A0000F302405203E8A110A12B7200800A41D32
:1001B0000800063024050319080008000800A20101
:1001C000A1010830A30083160313861483160313BA
:1001D000061432308A110A125D2183120313861825
:1001E000EF2883120313861CF32883120313861847
:1001F000F72883120313061CFF2803140029031099
:10020000A20C83120313861C0329A30BF528831267
:1002100003138618092983120313061C11292114BC
:100220001629211083120313861C14298312031329
:10023000861818298312031306181C298316031322
:100240008610831203138610220808000800080095
:10025000831203131F108730831603138100831644
:1002600003138614831603130614831603138717C8
:100270000713831203139A01831203139901813028
:1002800083160313990024308316031398009030CB
:1002900083120313980083160313061183120313AA
:1002A00006110800A0008312031381010108C83A57
:1002B000031D5629A00B53290800A00000000000D0
:0A02C00000000000A00B5E290800FA
:02400E00323F3F
:00000001FF
